:1000000019C033C032C031C030C02FC02EC02DC087
:100010002CC02BC02AC029C028C027C026C025C09C
:1000200024C023C023C021C020C01FC01EC01DC0CB
:100030001CC01BC011241FBECFEFD4E0DEBFCDBF5C
:1000400012E0A0E0B1E0EAECF6E002C005900D920B
:10005000A233B107D9F722E0A2E3B2E001C01D92BA
:10006000A739B207E1F7CDD12EC3CACF1F920F92A5
:100070000FB60F9211242F933F934F935F936F937B
:100080007F938F939F93AF93BF93EF93FF93F894D6
:100090008091C600809396026091960282E592E07C
:1000A000FFD27894FF91EF91BF91AF919F918F9183
:1000B0007F916F915F914F913F912F910F900FBE64
:1000C0000F901F9018951092C000E1ECF0E088E1CD
:1000D000808383E390E09093C5008093C400808187
:1000E000808378940895E0ECF0E0908195FFFDCF57
:1000F0008093C6000895E0ECF0E080818823ECF75F
:100100008091C6000895982F80ED890F8A3010F0F5
:1001100089EC890F0895CF93EEDFF5DFC82FEBDF71
:10012000F2DFC295C07F8C2BCF910895CF93C82F5B
:10013000CF7082958F708A3018F4805DD4DF02C052
:10014000895CD1DFCA3020F480E38C0FCCDF03C0A0
:1001500087E38C0FC8DFCF9108950F931F93CF9340
:10016000DF93161617064CF4EC018C01060F171FCF
:100170008991DCDFC017D107D9F7DF91CF911F91AB
:100180000F910895CF93DF93EC018881882329F0A4
:100190002196A9DF89918111FCCFDF91CF9108953C
:1001A000209A289A089584B1837C84B984B18E62A0
:1001B00084B980E58CBD8DB581608DBD2A9A299862
:1001C00008958EBD0DB407FEFDCF8EB508952A9813
:1001D000F8DF8FEFF6DF2A9A0895CF92DF92EF9241
:1001E000FF920F931F93CF93DF93D82EC62E7A01E1
:1001F000022FF89481E0D81204C0862F8F7180629C
:10020000C82E2A988C2DDDDF10E010161106BCF4E4
:10021000C0E0D0E0D1100AC080EAC81639F08FEFF4
:10022000D0DFFE01EE5CFD4F808305C0F701EC0FCF
:10023000FD1F8081C6DF2196C017D1075CF32A9A83
:10024000789482E392E0DF91CF911F910F91FF901C
:10025000EF90DF90CF9008950F931F93CF93DF938C
:1002600000D000D01F92CDB7DEB72FEF80E792E02D
:10027000215080409040E1F700C0000088E1898370
:1002800021E0AE014F5F5F4F65E081E0A6DF1FE335
:10029000198321E0AE014F5F5F4F61E081E09DDF98
:1002A00005E0098321E0AE014F5F5F4F61E181E02E
:1002B00094DF098321E0AE014F5F5F4F62E181E08F
:1002C0008CDF8FE2898321E0AE014F5F5F4F64E0F6
:1002D00081E083DF198321E0AE014F5F5F4F62E071
:1002E00081E07BDF83E0898321E0AE014F5F5F4FD8
:1002F00063E081E072DF87E0898321E0AE014F5F38
:100300005F4F66E081E069DF12E119831A831B8386
:100310001C831D8325E0AE014F5F5F4F6AE081E0E3
:100320005CDF84E789838A838B838C838D8325E0DC
:10033000AE014F5F5F4F6BE081E04FDF19831A839F
:100340001B831C831D8325E0AE014F5F5F4F60E17F
:1003500081E043DF8EE1898321E0AE014F5F5F4F93
:1003600060E081E03ADF2FEF80E792E021508040AB
:100370009040E1F700C000000F900F900F900F9099
:100380000F90DF91CF911F910F910895CF93DF933D
:10039000EC0120E0AC0161EE80E01FDF25E0AE0162
:1003A00060EA80E01ADF8FE19EE40197F1F700C078
:1003B0000000299A87EE93E00197F1F700C0000052
:1003C00029988FE19EE40197F1F700C00000DF91CA
:1003D000CF91089582E98A95F1F700C02A9882E9C1
:1003E0008A95F1F700C087E2ECDE8AE18A95F1F7A1
:1003F00000C080E7E6DE8AE18A95F1F700C02A9A1C
:100400000895CF93DF9300D000D01F92CDB7DEB711
:1004100082E592E02AD157DEC3DEC5DE1DDF81E42E
:1004200080939602289A88E489838A838B838C83BD
:100430008D836E0186E0C80ED11C0F2EF2E9EF2EDF
:10044000F2E0FF2EF02D03E912E055DE80939602D4
:100450008091960248DE80E246DE809196028235E7
:10046000B9F480E091E08EDE56DEB82E85E291E0B0
:1004700089DE8B2D5BDE8EE292E084DE8B2DA7DEA3
:1004800055DE8AE030DE8DE02EDE10929602C2C08C
:1004900080919602873519F58AE391E073DE3BDEA1
:1004A000A82E85E291E06EDE8A2D40DE80E691E0A6
:1004B00069DE31DEB82E898321E0AE014F5F5F4FE8
:1004C0006A2D81E08ADE83E891E05CDE8B2D2EDEF2
:1004D0008AE009DE8DE007DE109296029BC08091D3
:1004E00096028335E1F48EE891E04CDE88EB91E0F2
:1004F00049DE11DEB82E8CED91E044DE8B2D16DE48
:1005000080EF91E03FDE6AE06B0D25E0AE014F5FCA
:100510005F4F80E062DE65E070E01FDE7BC08091AF
:100520009602863579F58AEF91E02CDE88EB91E032
:1005300029DEF1DD982E8CED91E024DE892DF6DDAB
:1005400080E691E01FDEFE0131965F01E4DDF501FA
:1005500081935F01EC15FD05C9F76AE0690D25E09F
:10056000AE014F5F5F4F81E038DE85E292E00ADE48
:1005700065E070E0CE010196F0DD8AE0B4DD8DE04B
:10058000B2DD48C080919602813408F456C0809153
:1005900096028B3408F457C050C025E0AE014F5F7F
:1005A0005F4F60E180E019DE65E070E0D6DD10921B
:1005B000960230C0809196028C3469F425E0AE0139
:1005C0004F5F5F4F6BE080E008DE65E070E0C5DD07
:1005D000109296021FC0809196028D3441F4CE0194
:1005E0000196D4DE8FEFA2DD1092960213C08091A7
:1005F00096028E3431F4EEDE8FEF98DD1092960283
:1006000009C0809196028F3470F1809196028235F4
:1006100010F129C0F7012081F801808130E02F5FBF
:100620003F4F2F73307890E02817390709F40DCF2A
:1006300082E592E025D057DD08CF809196028B3479
:1006400009F0B8CFAACF809196028154C0DD6EDD4B
:1006500010929602DFCF809196028E53B8DD66DD50
:1006600010929602D7CF2898D5CFFC01E05CFF4FBF
:100670001082319621E020833196118210820895F4
:10068000FC01E05CFF4F2081DC01A20FB11D8C91C9
:10069000208130E02F5F3F4F2F7333272083089551
:1006A000FC01E05CFF4F2081FC01E20FF11D608343
:1006B000FC01EF5BFF4F208130E02F5F3F4F2F7336
:0A06C000332720830895F894FFCF3C
:1006CA005768696368207265676973746572206424
:1006DA006F20796F752077616E7420746F20726550
:1006EA0061640A0D00596F75207069636B65642037
:1006FA007265676973746572200057686963682058
:10070A00726567697374657220646F20796F7520EA
:10071A0077616E7420746F2077726974650A0D00B0
:10072A00205768617420646F20796F752077616E35
:10073A007420746F20777269746520746F206974ED
:10074A000A0D00596F752077726F74653A00576801
:10075A006963682061727261792061646472657389
:10076A007320646F20796F752077616E7420746FBF
:10077A0020726561640A0D0030303A2052585F5089
:10078A00302C2030313A2052585F50312C203036EC
:10079A003A2054585F414444520A0D00596F75205B
:1007AA007069636B656420616464726573732000A9
:1007BA000A0D56616C75653A2000576869636820AE
:1007CA006172726179206164647265737320646F07
:1007DA0020796F752077616E7420746F2077726943
:1007EA0074650A0D00596F752077726F74653A2027
:0207FA000000FD
:00000001FF
