S01A00004E524632344C30316D6567613838746573742E7372656347
S113000019C028C027C026C025C024C023C022C0D0
S113001021C020C01FC01EC01DC01CC01BC01AC0F0
S113002019C018C03CC016C015C014C013C012C0FB
S113003011C010C011241FBECFEFD4E0DEBFCDBF6E
S113004021E0A0E0B1E001C01D92A536B207E1F7BE
S1130050DDD175C2D5CFFC01E05CFF4F2081DC010E
S1130060A20FB11D4C91208130E02F5F3F4F2F73C1
S113007030782083842F0895FC01E05CFF4F2081B9
S1130080FC01E20FF11D6083FC01EF5BFF4F208157
S113009030E02F5F3F4F2F733078208308951F92F5
S11300A00F920FB60F9211242F933F934F935F93A8
S11300B06F937F938F939F93AF93BF93EF93FF932C
S11300C0F8948091C600809364016091640180E299
S11300D091E0D2DF7894FF91EF91BF91AF919F911E
S11300E08F917F916F915F914F913F912F910F90DD
S11300F00FBE0F901F90189582E08093C000E1EC32
S1130100F0E088E180838CE090E09093C5008093D8
S1130110C40080818068808378940895E0ECF0E0E6
S1130120908195FFFDCF8093C6000895209A289A68
S1130130089584B1837C84B984B18E6284B981E5E5
S11301408CBD2A9A299808958EBD0DB407FEFDCF63
S11301508EB5089592E19A95F1F700002A9892E1FC
S11301609A95F1F70000F0DF85E08A95F1F78FEFBB
S1130170EBDF95E09A95F1F72A9A0895CF92DF92F2
S1130180EF92FF920F931F93CF93DF93D82EC62E37
S11301907A01022FF89481E0D81204C0862F8F715F
S11301A08062C82E82E18A95F1F700002A988C2D8E
S11301B0CBDF10E010161106BCF4C0E0D0E0D11083
S11301C00AC080EAC81639F08FEFBEDFFE01E050A6
S11301D0FF4F808305C0F701EC0FFD1F8081B4DF62
S11301E02196C017D1075CF32A9A789480E091E0B5
S11301F0DF91CF911F910F91FF90EF90DF90CF90FF
S113020008950F931F93CF93DF9300D000D01F92D4
S1130210CDB7DEB787EA91E60197F1F700C0000099
S113022005E0098321E0AE014F5F5F4F65E081E0A7
S1130230A5DF098321E0AE014F5F5F4F61E181E0FB
S11302409DDF098321E0AE014F5F5F4F62E181E0F2
S113025095DF83E0898321E0AE014F5F5F4F61E06A
S113026081E08CDF8FE2898321E0AE014F5F5F4F35
S113027064E081E083DF8FE0898321E0AE014F5F9A
S11302805F4F62E081E07ADF87E0898321E0AE019D
S11302904F5F5F4F66E081E071DF85E589838A8384
S11302A08B838C838D8325E0AE014F5F5F4F6AE0C3
S11302B081E064DF12E119831A831B831C831D838D
S11302C025E0AE014F5F5F4F6BE081E057DF88E5CB
S11302D089838A838B838C838D8325E0AE014F5F72
S11302E05F4F60E181E04ADF098321E0AE014F5FA7
S11302F05F4F65E081E042DF19831A831B831C830F
S11303001D8325E0AE014F5F5F4F6BE081E036DF78
S11303108DE7898321E0AE014F5F5F4F60E081E0AC
S11303202DDF87EA91E60197F1F700C000000F90F6
S11303300F900F900F900F90DF91CF911F910F911D
S11303400895CF93DF93EC0120E0AC0161EE80E0EF
S113035015DF25E0AE0160EA80E010DF83EC99E070
S11303600197F1F700C00000299A96EA9A95F1F7EF
S113037000C0299883EC99E00197F1F700C00000D0
S1130380DF91CF91089582E18A95F1F700002A98D0
S113039082E18A95F1F7000087E2D6DE83E08A9550
S11303A0F1F7000080E7D0DE83E08A95F1F70000E2
S11303B02A9A0895CF93C82FCF7082958F708A3070
S11303C018F4805DABDE02C0895CA8DECA3020F47C
S11303D080E38C0FA3DE03C087E38C0F9FDECF91F5
S11303E008950F931F93CF93DF93161617064CF4BB
S11303F0EC018C01060F171F8991DCDFC017D107B0
S1130400D9F7DF91CF911F910F910895CF93DF9387
S113041000D000D01F92CDB7DEB71092600181E00A
S113042080936101109263011092620165DE7EDEA9
S113043080DEE7DE81E480936401289A88E489837E
S11304408A838B838C838D830F2EF0E6EF2EF1E06D
S1130450FF2EF02D01E611E080916401813408F44F
S11304605EC0809164018B3408F451C058C025E00B
S1130470AE014F5F5F4F60E180E080DE65E070E0D9
S1130480B0DF1092640130C0809164018C3469F44F
S113049025E0AE014F5F5F4F6BE080E06FDE65E00B
S11304A070E09FDF109264011FC0809164018D345D
S11304B041F4CE01019645DF8FEF7CDF1092640199
S11304C013C0809164018E3431F45DDF8FEF72DFED
S11304D01092640109C0809164018F3470F180919D
S11304E06401823510F129C0F7012081F80180816F
S11304F030E02F5F3F4F2F73307890E02817390793
S113050009F4AACF80E291E0A6DD08DEA5CF8091B0
S1130510640181541FDE4EDF10926401E5CF8091A7
S113052064018B3409F0B0CFA2CF809164018E5363
S113053011DE40DF10926401D7CF2898D5CFF8940C
S1050540FFCFE7
S9030000FC
