S01A00004E524632344C30316D6567613838746573742E7372656347
S113000019C033C032C031C030C02FC02EC02DC083
S11300102CC02BC02AC029C028C027C026C025C098
S113002024C023C047C021C020C01FC01EC01DC0A3
S11300301CC01BC011241FBECFEFD4E0DEBFCDBF58
S113004012E0A0E0B1E0E8E8F6E002C005900D920D
S1130050A430B107D9F722E0A4E0B2E001C01D92B8
S1130060A936B207E1F7DAD10DC3CACFFC01E05CCF
S1130070FF4F2081DC01A20FB11D4C91208130E0A3
S11300802F5F3F4F2F7330782083842F0895FC0116
S1130090E05CFF4F2081FC01E20FF11D6083FC0155
S11300A0EF5BFF4F208130E02F5F3F4F2F7330789D
S11300B0208308951F920F920FB60F9211242F934D
S11300C03F934F935F936F937F938F939F93AF93DC
S11300D0BF93EF93FF93F8948091C60080936802D6
S11300E06091680284E292E0D2DF7894FF91EF910C
S11300F0BF91AF919F918F917F916F915F914F913C
S11301003F912F910F900FBE0F901F901895109252
S1130110C000E1ECF0E088E1808383E390E0909319
S1130120C5008093C4008081808378940895E0ECB6
S1130130F0E0908195FFFDCF8093C6000895E0EC38
S1130140F0E080818823ECF78091C6000895982F11
S113015080ED890F8A3010F089EC890F0895CF93D0
S1130160EEDFF5DFC82FEBDFF2DFC295C07F8C2B0B
S1130170CF910895209A289A089584B1837C84B9F4
S113018084B18E6284B980E58CBD8DB581608DBDEE
S11301902A9A299808958EBD0DB407FEFDCF8EB519
S11301A008952A98F8DF8FEFF6DF2A9A0895CF9200
S11301B0DF92EF92FF920F931F93CF93DF93D82E8A
S11301C0C62E7A01022FF89481E0D81204C0862F3B
S11301D08F718062C82E2A988C2DDDDF10E01016F6
S11301E01106BCF4C0E0D0E0D1100AC080EAC81601
S11301F039F08FEFD0DFFE01EC5FFD4F808305C047
S1130200F701EC0FFD1F8081C6DF2196C017D107CF
S11302105CF32A9A789484E092E0DF91CF911F9165
S11302200F91FF90EF90DF90CF9008950F931F935D
S1130230CF93DF9300D000D01F92CDB7DEB72FEF5E
S113024080E792E0215080409040E1F700C0000038
S113025005E0098321E0AE014F5F5F4F65E081E077
S1130260A6DF098321E0AE014F5F5F4F61E181E0CA
S11302709EDF1FE3198321E0AE014F5F5F4F61E012
S113028081E095DF8FE2898321E0AE014F5F5F4F0C
S113029064E081E08CDF198321E0AE014F5F5F4FA2
S11302A062E081E084DF87E0898321E0AE014F5F73
S11302B05F4F66E081E07BDF10E119831A831B83C3
S11302C01C831D8325E0AE014F5F5F4F6AE081E030
S11302D06EDF19831A831B831C831D8325E0AE0103
S11302E04F5F5F4F60E181E062DF098321E0AE018F
S11302F04F5F5F4F65E081E05ADF8EE0898321E044
S1130300AE014F5F5F4F60E081E051DF2FEF80E788
S113031092E0215080409040E1F700C000000F902F
S11303200F900F900F900F90DF91CF911F910F912D
S11303300895CF93DF93EC0120E0AC0161EE80E0FF
S113034036DF25E0AE0160EA80E031DF8FE19EE434
S11303500197F1F700C00000299A87EE93E0019716
S1130360F1F700C0000029988FE19EE40197F1F7AE
S113037000C00000DF91CF91089582E98A95F1F7DA
S113038000C02A9882E98A95F1F700C087E203DF6A
S11303908AE18A95F1F700C080E7FDDE8AE18A955B
S11303A0F1F700C02A9A0895CF93C82FCF70829591
S11303B08F708A3018F4805DBADE02C0895CB7DEC3
S11303C0CA3020F480E38C0FB2DE03C087E38C0FC5
S11303D0AEDECF9108950F931F93CF93DF9316163C
S11303E017064CF4EC018C01060F171F8991DCDF12
S11303F0C017D107D9F7DF91CF911F910F910895BD
S1130400CF93DF93EC018881882329F021968FDE36
S113041089918111FCCFDF91CF910895CF93DF9320
S113042000D000D01F92CDB7DEB71092640281E0F5
S113043080936502109267021092660268DE9ADE6B
S11304409CDEF4DE81E480936802289A88E4898340
S11304508A838B838C838D836E0186E0C80ED11CC6
S11304600F2EF4E6EF2EF2E0FF2EF02D05E612E05B
S113047066DE809368028091680259DE80E257DE6E
S1130480809168028235B9F480E091E0B9DF67DEDB
S1130490B82E85E291E0B4DF8B2D86DF80E092E018
S11304A0AFDF8B2D7EDE80DF8AE041DE8DE03FDE34
S11304B010926802BCC080916802873519F58AE3FE
S11304C091E09EDF4CDEA82E85E291E099DF8A2D33
S11304D06BDF80E691E094DF42DEB82E898321E071
S11304E0AE014F5F5F4F6A2D81E061DE83E891E0EA
S11304F087DF8B2D59DF8AE01ADE8DE018DE10923B
S1130500680295C0809168028335C9F48EE891E051
S113051077DF25DEB82E88EB91E072DF8B2D44DF88
S113052080E092E06DDF6AE06B0D25E0AE014F5F85
S11305305F4F80E03CDE65E070E04DDF78C0809185
S11305406802863561F58CEC91E05ADF08DE982E5E
S113055088EB91E055DF892D27DF80E691E050DFBD
S1130560FE0131965F01FBDDF50181935F01EC151E
S1130570FD05C9F76AE0690D25E0AE014F5F5F4FE5
S113058081E015DE87EF91E03BDF65E070E0CE01AE
S1130590019621DF8AE0CBDD8DE0C9DD48C0809182
S11305A06802813408F456C0809168028B3408F4E0
S11305B057C050C025E0AE014F5F5F4F60E180E05F
S11305C0F6DD65E070E007DF1092680230C08091CC
S11305D068028C3469F425E0AE014F5F5F4F6BE035
S11305E080E0E5DD65E070E0F6DE109268021FC091
S11305F0809168028D3441F4CE0101969ADE8FEF2A
S1130600D3DE1092680213C0809168028E3431F4F4
S1130610B4DE8FEFC9DE1092680209C080916802CF
S11306208F3470F180916802823510F129C0F7018E
S11306302081F801808130E02F5F3F4F2F733078A5
S113064090E02817390709F413CF84E292E00EDD15
S11306506EDD0ECF809168028B3409F0B8CFAACF3B
S11306608091680281549DDD9FDE10926802DFCF85
S1130670809168028E5395DD97DE10926802D7CF81
S10B06802898D5CFF894FFCFB0
S11306885768696368207265676973746572206462
S11306986F20796F752077616E7420746F2072658E
S11306A861640A0D00596F75207069636B65642075
S11306B87265676973746572200057686963682096
S11306C8726567697374657220646F20796F752029
S11306D877616E7420746F2077726974650A0D00EF
S11306E8205768617420646F20796F752077616E74
S11306F87420746F20777269746520746F2069742C
S11307080A0D00596F752077726F74653A0057683F
S113071869636820617272617920616464726573C7
S11307287320646F20796F752077616E7420746FFD
S113073820726561640A0D00596F75207069636BD6
S11307486564206164647265737320005768696323
S113075868206172726179206164647265737320C0
S1130768646F20796F752077616E7420746F2077B9
S1130778726974650A0D00596F752077726F746514
S10707883A2000000F
S9030000FC
