:1000000019C028C027C026C025C024C023C022C0D4
:1000100021C020C01FC01EC01DC01CC01BC01AC0F4
:1000200019C018C03CC016C015C014C013C012C0FF
:1000300011C010C011241FBECFEFD4E0DEBFCDBF72
:1000400021E0A0E0B1E001C01D92A536B207E1F7C2
:1000500069D1A9C1D5CFFC01E05CFF4F2081DC0153
:10006000A20FB11D4C91208130E02F5F3F4F2F73C5
:1000700030782083842F0895FC01E05CFF4F2081BD
:10008000FC01E20FF11D6083FC01EF5BFF4F20815B
:1000900030E02F5F3F4F2F733078208308951F92F9
:1000A0000F920FB60F9211242F933F934F935F93AC
:1000B0006F937F938F939F93AF93BF93EF93FF9330
:1000C000F8948091C600809364016091640180E29D
:1000D00091E0D2DF7894FF91EF91BF91AF919F9122
:1000E0008F917F916F915F914F913F912F910F90E1
:1000F0000FBE0F901F90189582E08093C000E1EC36
:10010000F0E088E180838CE090E09093C5008093DC
:10011000C40080818068808378940895E0ECF0E0EA
:10012000908195FFFDCF8093C6000895209A289A6C
:10013000089584B18E6284B924988CB581658CBD94
:100140002A9A299808958EBD8DB58EB5089595E0AB
:100150009A95F1F72A9895E09A95F1F7F4DF85E002
:100160008A95F1F78FEFEFDF95E09A95F1F72A9AEC
:100170000895CF92DF92EF92FF920F931F93CF9348
:10018000DF93D82EC62E7A01022FF89481E0D81280
:1001900002C080E2C80E83E08A95F1F700002A9839
:1001A00083E08A95F1F700008C2DCDDF83E08A95FE
:1001B000F1F7000010E010161106FCF4C0E0D0E0EA
:1001C000D1100EC080EAC81659F08FEFBCDFFE01D7
:1001D000E050FF4F808383E08A95F1F7000009C06B
:1001E000F701EC0FFD1F8081AEDF83E08A95F1F708
:1001F00000002196C017D1071CF32A9A789480E05A
:1002000091E0DF91CF911F910F91FF90EF90DF90E0
:10021000CF9008951F93CF93DF9300D000D01F920B
:10022000CDB7DEB787EA91E60197F1F700C000008D
:1002300011E0198321E0AE014F5F5F4F61E081E083
:1002400098DF8FE2898321E0AE014F5F5F4F64E06A
:1002500081E08FDF198321E0AE014F5F5F4F62E0E5
:1002600081E087DF83E0898321E0AE014F5F5F4F4C
:1002700063E081E07EDF198321E0AE014F5F5F4FD5
:1002800065E081E076DF87E0898321E0AE014F5FA2
:100290005F4F66E081E06DDF12E119831A831B83F3
:1002A0001C831D8325E0AE014F5F5F4F6AE081E054
:1002B00060DF19831A831B831C831D8325E0AE0135
:1002C0004F5F5F4F60E181E054DF85E0898321E08B
:1002D000AE014F5F5F4F61E181E04BDF8EE18983CB
:1002E00021E0AE014F5F5F4F60E081E042DF87EACF
:1002F00091E60197F1F700C000000F900F900F906A
:100300000F900F90DF91CF911F910895CF93C82F39
:1003100082958F708F5B02DF8C2F8F708F5BFEDE7C
:10032000CF9108951092600181E080936101109255
:10033000630110926201E0DEF9DEFBDE6BDF81E437
:1003400080936401289A00E611E0C1E6D1E00F2E07
:10035000F3E4FF2EF02D80916401813439F4289A62
:1003600081E0F5DED3DFF09264010CC0809164017E
:10037000853439F4289A87E0EADEC8DFF092640118
:1003800001C02898F8012081888130E02F5F3F4F1D
:100390002F73307890E028173907E9F280E291E076
:0A03A0005ADEBCDED8CFF894FFCF80
:00000001FF
