:1000000019C028C027C026C025C024C023C022C0D4
:1000100021C020C01FC01EC01DC01CC01BC01AC0F4
:1000200019C018C017C016C015C014C013C012C024
:1000300011C010C011241FBECFEFD4E0DEBFCDBF72
:1000400021E0A0E0B1E001C01D92A032B207E1F7CB
:1000500014D157C1D5CF87B1806387B9089584B1D2
:10006000837C84B984B18E6284B980E58CBD8DB502
:1000700081608DBD2A9A299808958EBD0DB407FE22
:10008000FDCF8EB5089593E09A95F1F700002A9878
:1000900093E09A95F1F70000F0DF83E08A95F1F79D
:1000A00000008FEFEADF93E09A95F1F700002A9ABB
:1000B0000895CF92DF92EF92FF920F931F93CF9309
:1000C000DF93D82EC62E7A01022FF89481E0D81241
:1000D00002C080E2C80E85E08A95F1F72A9883E095
:1000E0008A95F1F700008C2DC8DF83E08A95F1F73F
:1000F000000010E010161106FCF4C0E0D0E0D110B2
:100100000EC080EAC81659F08FEFB7DFFE01E0504D
:10011000FF4F808383E08A95F1F7000009C0F70163
:10012000EC0FFD1F8081A9DF83E08A95F1F70000C5
:100130002196C017D1071CF32A9A789480E091E0A9
:10014000DF91CF911F910F91FF90EF90DF90CF90B3
:1001500008950F931F93CF93DF9300D000D01F9289
:10016000CDB7DEB787EA91E60197F1F700C000004E
:1001700088E1898321E0AE014F5F5F4F65E081E058
:1001800098DF1FE3198321E0AE014F5F5F4F61E00D
:1001900081E08FDF05E0098321E0AE014F5F5F4F13
:1001A00061E181E086DF098321E0AE014F5F5F4FAF
:1001B00062E181E07EDF8FE2898321E0AE014F5F63
:1001C0005F4F64E081E075DF198321E0AE014F5F8E
:1001D0005F4F62E081E06DDF83E0898321E0AE0163
:1001E0004F5F5F4F63E081E064DF87E0898321E058
:1001F000AE014F5F5F4F66E081E05BDF14E719837C
:100200001A831B831C831D8325E0AE014F5F5F4F64
:100210006AE081E04EDF82E189838A838B838C836D
:100220008D8325E0AE014F5F5F4F6BE081E041DFE2
:1002300019831A831B831C831D8325E0AE014F5F46
:100240005F4F60E181E035DF8FE1898321E0AE011E
:100250004F5F5F4F60E081E02CDF87EA91E6019716
:10026000F1F700C000000F900F900F900F900F90CB
:10027000DF91CF911F910F910895EDDEF0DE69DFE0
:10028000459A2FE33DE043E0215030404040E1F704
:1002900000C0000087E0F7DE8E3099F788E090E03C
:1002A00020E238B1322738B95FE936E841E05150F1
:1002B00030404040E1F700C000000197009789F707
:1002C000299AC0E288B18C2788B95FE788E391E07A
:1002D000515080409040E1F700C0000088B18C2769
:1002E00088B92FE738E341E0215030404040E1F742
:1002F00000C0000087E0C7DE8E3021F32998449AC1
:06030000FFCFF894FFCFCF
:00000001FF
