:1000000019C033C032C031C030C02FC02EC02DC087
:100010002CC02BC02AC029C028C027C026C025C09C
:1000200024C023C046C021C020C01FC01EC01DC0A8
:100030001CC01BC011241FBECFEFD4E0DEBFCDBF5C
:1000400012E0A0E0B1E0E0E3F6E002C005900D921E
:10005000A430B107D9F722E0A4E0B2E001C01D92BC
:10006000A936B207E1F7DBD1E1C2CACFFC01E05CFF
:10007000FF4F2081DC01A20FB11D8C91208130E067
:100080002F5F3F4F2F73332720830895FC01E05CDF
:10009000FF4F2081FC01E20FF11D6083FC01EF5B4B
:1000A000FF4F208130E02F5F3F4F2F733327208396
:1000B00008951F920F920FB60F9211242F933F9322
:1000C0004F935F936F937F938F939F93AF93BF9360
:1000D000EF93FF93F8948091C6008093680260913B
:1000E000680284E292E0D2DF7894FF91EF91BF91B1
:1000F000AF919F918F917F916F915F914F913F91C0
:100100002F910F900FBE0F901F9018951092C00066
:10011000E1ECF0E088E1808383E390E09093C50018
:100120008093C40080818083789408959091C0006A
:1001300095FFFCCF8093C60008958091C00087FF93
:10014000FCCF8091C6000895982F80ED890F8A30EA
:1001500010F089EC890F0895CF93EFDFF5DFC82FFA
:10016000ECDFF2DFC295C07F8C2BCF910895209AEF
:10017000289A089584B1837C84B984B18E6284B94D
:1001800080E58CBD8DB581608DBD2A9A2998089532
:100190008EBD0DB407FEFDCF8EB508952A98F8DF09
:1001A0008FEFF6DF2A9A0895AF92BF92DF92EF9217
:1001B000FF920F931F93CF93DF931F92CDB7DEB7BC
:1001C000D82E7A01022FF89481E0D81202C06F7104
:1001D00060622A98862F6983DBDFA12CB12C10E0A6
:1001E0006981A016B106BCF4D1100AC0603A41F092
:1001F0008FEF6983CDDFF501EC5FFD4F808306C093
:10020000F701EA0DFB1D80816983C2DF6981EFEF91
:10021000AE1ABE0AE6CF2A9A789484E092E00F9054
:10022000DF91CF911F910F91FF90EF90DF90BF90E2
:10023000AF9008950F931F93CF93DF9300D000D01A
:100240001F92CDB7DEB72FEF80E792E021508040BC
:100250009040E1F700C0000005E0098321E0AE0115
:100260004F5F5F4F65E081E09FDF098321E0AE01D2
:100270004F5F5F4F61E181E097DF1FE3198321E06A
:10028000AE014F5F5F4F61E081E08EDF8FE28983D7
:1002900021E0AE014F5F5F4F64E081E085DF1983AD
:1002A00021E0AE014F5F5F4F62E081E07DDF87E0DC
:1002B000898321E0AE014F5F5F4F66E081E074DF2C
:1002C00010E119831A831B831C831D8325E0AE0173
:1002D0004F5F5F4F6AE081E067DF19831A831B83FA
:1002E0001C831D8325E0AE014F5F5F4F60E181E01D
:1002F0005BDF098321E0AE014F5F5F4F65E081E086
:1003000053DF8EE0898321E0AE014F5F5F4F60E0F5
:1003100081E04ADF2FEF80E792E02150804090405B
:10032000E1F700C000000F900F900F900F900F901A
:10033000DF91CF911F910F910895CF93DF93EC013F
:1003400020E0AC0161EE80E02FDF25E0AE0160EA45
:1003500080E02ADF8FE19EE40197F1F700C0000002
:10036000299A87EE93E00197F1F700C000002998E1
:100370008FE19EE40197F1F700C00000DF91CF917B
:10038000089582E98A95F1F700C02A9882E98A9552
:10039000F1F700C087E2FCDE8AE18A95F1F700C040
:1003A00080E7F6DE8AE18A95F1F700C02A9A08957F
:1003B000CF93C82FCF7082958F708A3010F4805DF4
:1003C00001C0895CB3DECA3010F480E301C087E36A
:1003D0008C0FCF91ABCEEF92FF920F931F93CF93E1
:1003E000DF938C017B01EC01CE01801B910B8E15FC
:1003F0009F051CF48991DCDFF7CFDF91CF911F912E
:100400000F91FF90EF900895CF93DF93EC018991C6
:10041000882311F08BDEFBCFDF91CF910895CF932E
:10042000DF9300D000D01F92CDB7DEB710926402E8
:1004300081E080936502109267021092660266DE88
:1004400096DE98DEF7DE81E480936802289A88E4DD
:1004500089838A838B838C838D837E0186E0E80E7B
:10046000F11C6BDE80936802809168025FDE80E29F
:100470005DDE80916802823581F480E091E0C4DF26
:100480006BDE182F85E291E0BFDF812F91DF80E0E6
:1004900092E0BADF812F82DE1FC08091680287352B
:1004A00009F58AE391E0B0DF57DE182F85E291E08D
:1004B000ABDF812F7DDF80E691E0A6DF4DDE082FE8
:1004C000898321E0AE014F5F5F4F612F81E06CDED9
:1004D00083E891E099DF802F6BDF8AE027DE8DE0F3
:1004E00025DE67C0809168028335C9F48EE891E00B
:1004F0008BDF32DE182F88EB91E086DF812F58DF0B
:1005000080E092E081DF6AE0610F25E0AE014F5F9D
:100510005F4F80E049DE65E070E05DDF4CC08091B8
:100520006802863561F58CEC91E06EDF15DED82E21
:1005300088EB91E069DF8D2D3BDF80E691E064DFA1
:100540008E010F5F1F4F08DEF80181938F01EE15BA
:10055000FF05C9F76AE06D0D25E0AE014F5F5F4F03
:1005600081E022DE87EF91E04FDF65E070E0CE01B1
:10057000019631DF8AE0DADD8DE0D8DD1CC08091A4
:100580006802813440F0809168028B3420F48091BD
:100590006802815446C0809168028B34F1F425E0F2
:1005A000AE014F5F5F4F60E180E0FEDD65E070E02F
:1005B00012DF10926802809164022091650290E03F
:1005C00001968F73992730E08217930709F449CF7A
:1005D00084E292E04BDDAADD44CF809168028C3446
:1005E00031F425E0AE014F5F5F4F6BE0DDCF8091CE
:1005F00068028D3421F4CE0101969FDE05C0809102
:1006000068028E3419F4BDDE8FEF0CC08091680251
:100610008F3450F080916802823530F48091680206
:100620008E53BCDDC5DEC5CF2898C5CFF894FFCF6B
:1006300057686963682072656769737465722064BE
:100640006F20796F752077616E7420746F207265EA
:1006500061640A0D00596F75207069636B656420D1
:1006600072656769737465722000576869636820F2
:10067000726567697374657220646F20796F752085
:1006800077616E7420746F2077726974650A0D004B
:10069000205768617420646F20796F752077616ED0
:1006A0007420746F20777269746520746F20697488
:1006B0000A0D00596F752077726F74653A0057689C
:1006C0006963682061727261792061646472657324
:1006D0007320646F20796F752077616E7420746F5A
:1006E00020726561640A0D00596F75207069636B33
:1006F0006564206164647265737320005768696380
:10070000682061727261792061646472657373201C
:10071000646F20796F752077616E7420746F207715
:10072000726974650A0D00596F752077726F746570
:040730003A2000006B
:00000001FF
