S01B000054657374696E67415652426C7565746F6F74682E737265638C
S113000019C028C027C026C025C024C023C022C0D0
S113001021C020C01FC01EC01DC01CC01BC01AC0F0
S113002019C018C03CC016C015C014C013C012C0FB
S113003011C010C011241FBECFEFD4E0DEBFCDBF6E
S113004021E0A0E0B1E001C01D92A534B207E1F7C0
S113005071D09DC0D5CFFC01E05CFF4F2081DC0155
S1130060A20FB11D4C91208130E02F5F3F4F2F73C1
S113007030782083842F0895FC01E05CFF4F2081B9
S1130080FC01E20FF11D6083FC01EF5BFF4F208157
S113009030E02F5F3F4F2F733078208308951F92F5
S11300A00F920FB60F9211242F933F934F935F93A8
S11300B06F937F938F939F93AF93BF93EF93FF932C
S11300C0F8948091C600809344016091440180E0DB
S11300D091E0D2DF7894FF91EF91BF91AF919F911E
S11300E08F917F916F915F914F913F912F910F90DD
S11300F00FBE0F901F90189582E08093C000E1EC32
S1130100F0E088E180838CE090E09093C5008093D8
S1130110C40080818068808378940895E0ECF0E0E6
S1130120908195FFFDCF8093C600089581E084B946
S113013085B9089510924001C1E0C0934101109225
S1130140430110924201D8DFF1DF81E4809344013E
S1130150C5B9FF24F39400E411E0C1E4D1E0809137
S11301604401813411F4F5B801C015B8F8012081B7
S1130170888130E02F5F3F4F2F73307890E028174D
S1130180390769F380E091E066DFC8DFE8CFF894CF
S1050190FFCF9B
S9030000FC
